{
  "contractName": "Upfiring",
  "abi": [
    {
      "constant": true,
      "inputs": [],
      "name": "availablePaymentTime",
      "outputs": [
        {
          "name": "",
          "type": "uint256"
        }
      ],
      "payable": false,
      "stateMutability": "view",
      "type": "function"
    },
    {
      "constant": true,
      "inputs": [],
      "name": "owner",
      "outputs": [
        {
          "name": "",
          "type": "address"
        }
      ],
      "payable": false,
      "stateMutability": "view",
      "type": "function"
    },
    {
      "constant": true,
      "inputs": [],
      "name": "seedersProfitMargin",
      "outputs": [
        {
          "name": "",
          "type": "uint8"
        }
      ],
      "payable": false,
      "stateMutability": "view",
      "type": "function"
    },
    {
      "constant": true,
      "inputs": [],
      "name": "store",
      "outputs": [
        {
          "name": "",
          "type": "address"
        }
      ],
      "payable": false,
      "stateMutability": "view",
      "type": "function"
    },
    {
      "constant": true,
      "inputs": [],
      "name": "minWithdraw",
      "outputs": [
        {
          "name": "",
          "type": "uint256"
        }
      ],
      "payable": false,
      "stateMutability": "view",
      "type": "function"
    },
    {
      "constant": true,
      "inputs": [],
      "name": "torrentOwnerPercent",
      "outputs": [
        {
          "name": "",
          "type": "uint8"
        }
      ],
      "payable": false,
      "stateMutability": "view",
      "type": "function"
    },
    {
      "constant": false,
      "inputs": [
        {
          "name": "newOwner",
          "type": "address"
        }
      ],
      "name": "transferOwnership",
      "outputs": [],
      "payable": false,
      "stateMutability": "nonpayable",
      "type": "function"
    },
    {
      "constant": true,
      "inputs": [],
      "name": "token",
      "outputs": [
        {
          "name": "",
          "type": "address"
        }
      ],
      "payable": false,
      "stateMutability": "view",
      "type": "function"
    },
    {
      "inputs": [
        {
          "name": "_store",
          "type": "address"
        },
        {
          "name": "_token",
          "type": "address"
        },
        {
          "name": "_torrentOwnerPercent",
          "type": "uint8"
        },
        {
          "name": "_seedersProfitMargin",
          "type": "uint8"
        },
        {
          "name": "_minWithdraw",
          "type": "uint256"
        }
      ],
      "payable": false,
      "stateMutability": "nonpayable",
      "type": "constructor"
    },
    {
      "payable": true,
      "stateMutability": "payable",
      "type": "fallback"
    },
    {
      "anonymous": false,
      "inputs": [
        {
          "indexed": false,
          "name": "_torrent",
          "type": "string"
        },
        {
          "indexed": false,
          "name": "_amount",
          "type": "uint256"
        },
        {
          "indexed": true,
          "name": "_from",
          "type": "address"
        }
      ],
      "name": "Payment",
      "type": "event"
    },
    {
      "anonymous": false,
      "inputs": [
        {
          "indexed": true,
          "name": "_to",
          "type": "address"
        },
        {
          "indexed": false,
          "name": "_amount",
          "type": "uint256"
        }
      ],
      "name": "Refill",
      "type": "event"
    },
    {
      "anonymous": false,
      "inputs": [
        {
          "indexed": true,
          "name": "_to",
          "type": "address"
        },
        {
          "indexed": false,
          "name": "_amount",
          "type": "uint256"
        }
      ],
      "name": "Withdraw",
      "type": "event"
    },
    {
      "anonymous": false,
      "inputs": [
        {
          "indexed": true,
          "name": "_to",
          "type": "address"
        },
        {
          "indexed": false,
          "name": "_amount",
          "type": "uint256"
        },
        {
          "indexed": false,
          "name": "_hash",
          "type": "bytes32"
        }
      ],
      "name": "Pay",
      "type": "event"
    },
    {
      "anonymous": false,
      "inputs": [
        {
          "indexed": true,
          "name": "_to",
          "type": "address"
        },
        {
          "indexed": false,
          "name": "_balance",
          "type": "uint256"
        }
      ],
      "name": "ChangeBalance",
      "type": "event"
    },
    {
      "anonymous": false,
      "inputs": [
        {
          "indexed": false,
          "name": "_log",
          "type": "string"
        }
      ],
      "name": "LogEvent",
      "type": "event"
    },
    {
      "anonymous": false,
      "inputs": [
        {
          "indexed": true,
          "name": "previousOwner",
          "type": "address"
        },
        {
          "indexed": true,
          "name": "newOwner",
          "type": "address"
        }
      ],
      "name": "OwnershipTransferred",
      "type": "event"
    },
    {
      "constant": true,
      "inputs": [
        {
          "name": "_owner",
          "type": "address"
        }
      ],
      "name": "balanceOf",
      "outputs": [
        {
          "name": "balance",
          "type": "uint256"
        }
      ],
      "payable": false,
      "stateMutability": "view",
      "type": "function"
    },
    {
      "constant": true,
      "inputs": [
        {
          "name": "_owner",
          "type": "address"
        }
      ],
      "name": "totalReceivingOf",
      "outputs": [
        {
          "name": "balance",
          "type": "uint256"
        }
      ],
      "payable": false,
      "stateMutability": "view",
      "type": "function"
    },
    {
      "constant": true,
      "inputs": [
        {
          "name": "_owner",
          "type": "address"
        }
      ],
      "name": "totalSpendingOf",
      "outputs": [
        {
          "name": "balance",
          "type": "uint256"
        }
      ],
      "payable": false,
      "stateMutability": "view",
      "type": "function"
    },
    {
      "constant": true,
      "inputs": [
        {
          "name": "_torrent",
          "type": "string"
        },
        {
          "name": "_from",
          "type": "address"
        }
      ],
      "name": "check",
      "outputs": [
        {
          "name": "amount",
          "type": "uint256"
        }
      ],
      "payable": false,
      "stateMutability": "view",
      "type": "function"
    },
    {
      "constant": false,
      "inputs": [
        {
          "name": "_amount",
          "type": "uint256"
        }
      ],
      "name": "refill",
      "outputs": [],
      "payable": false,
      "stateMutability": "nonpayable",
      "type": "function"
    },
    {
      "constant": false,
      "inputs": [
        {
          "name": "_amount",
          "type": "uint256"
        }
      ],
      "name": "withdraw",
      "outputs": [],
      "payable": false,
      "stateMutability": "nonpayable",
      "type": "function"
    },
    {
      "constant": false,
      "inputs": [
        {
          "name": "_torrent",
          "type": "string"
        },
        {
          "name": "_amount",
          "type": "uint256"
        },
        {
          "name": "_owner",
          "type": "address"
        },
        {
          "name": "_seeders",
          "type": "address[]"
        },
        {
          "name": "_freeSeeders",
          "type": "address[]"
        }
      ],
      "name": "pay",
      "outputs": [],
      "payable": false,
      "stateMutability": "nonpayable",
      "type": "function"
    },
    {
      "constant": false,
      "inputs": [
        {
          "name": "_to",
          "type": "address"
        }
      ],
      "name": "migrateStore",
      "outputs": [],
      "payable": false,
      "stateMutability": "nonpayable",
      "type": "function"
    },
    {
      "constant": false,
      "inputs": [
        {
          "name": "_availablePaymentTime",
          "type": "uint256"
        }
      ],
      "name": "setAvailablePaymentTime",
      "outputs": [],
      "payable": false,
      "stateMutability": "nonpayable",
      "type": "function"
    },
    {
      "constant": false,
      "inputs": [
        {
          "name": "_seedersProfitMargin",
          "type": "uint8"
        }
      ],
      "name": "setSeedersProfitMargin",
      "outputs": [],
      "payable": false,
      "stateMutability": "nonpayable",
      "type": "function"
    },
    {
      "constant": false,
      "inputs": [
        {
          "name": "_torrentOwnerPercent",
          "type": "uint8"
        }
      ],
      "name": "setTorrentOwnerPercent",
      "outputs": [],
      "payable": false,
      "stateMutability": "nonpayable",
      "type": "function"
    },
    {
      "constant": false,
      "inputs": [
        {
          "name": "_minWithdraw",
          "type": "uint256"
        }
      ],
      "name": "setMinWithdraw",
      "outputs": [],
      "payable": false,
      "stateMutability": "nonpayable",
      "type": "function"
    }
  ],
  "bytecode": "0x60606040526032600260146101000a81548160ff021916908360ff1602179055506003600260156101000a81548160ff021916908360ff160217905550620151806003556000600455341561005357600080fd5b60405160a0806122f683398101604052808051906020019091908051906020019091908051906020019091908051906020019091908051906020019091905050336000806101000a81548173ffffffffffffffffffffffffffffffffffffffff021916908373ffffffffffffffffffffffffffffffffffffffff160217905550600073ffffffffffffffffffffffffffffffffffffffff168573ffffffffffffffffffffffffffffffffffffffff161415151561010f57600080fd5b600073ffffffffffffffffffffffffffffffffffffffff168473ffffffffffffffffffffffffffffffffffffffff161415151561014b57600080fd5b60008360ff161415151561015e57600080fd5b60008260ff161415151561017157600080fd5b84600260006101000a81548173ffffffffffffffffffffffffffffffffffffffff021916908373ffffffffffffffffffffffffffffffffffffffff16021790555083600160006101000a81548173ffffffffffffffffffffffffffffffffffffffff021916908373ffffffffffffffffffffffffffffffffffffffff16021790555082600260146101000a81548160ff021916908360ff16021790555081600260156101000a81548160ff021916908360ff1602179055508060048190555050505050506120b2806102446000396000f300606060405260043610610112576000357c0100000000000000000000000000000000000000000000000000000000900463ffffffff16806303797c08146101175780632e1a7d4d1461013d57806335aa134a146101605780634b90ac01146101835780635297b3f5146101a957806358337de51461023957806370a08231146102625780638da5cb5b146102af578063922c386514610304578063975057e714610333578063b7047f0e14610388578063ca9d07ba14610406578063cc3d272114610429578063d021715014610452578063d04a3fb71461049f578063e6184ca6146104ec578063ed0f1a2a1461050f578063f2fde38b1461053e578063f848b8af14610577578063fc0c546a146105b0575b600080fd5b341561012257600080fd5b61013b600480803560ff16906020019091905050610605565b005b341561014857600080fd5b61015e600480803590602001909190505061067e565b005b341561016b57600080fd5b6101816004808035906020019091905050610ae1565b005b341561018e57600080fd5b6101a7600480803560ff16906020019091905050610b46565b005b34156101b457600080fd5b610223600480803590602001908201803590602001908080601f0160208091040260200160405190810160405280939291908181526020018383808284378201915050505050509190803573ffffffffffffffffffffffffffffffffffffffff16906020019091905050610bbf565b6040518082815260200191505060405180910390f35b341561024457600080fd5b61024c610ccb565b6040518082815260200191505060405180910390f35b341561026d57600080fd5b610299600480803573ffffffffffffffffffffffffffffffffffffffff16906020019091905050610cd1565b6040518082815260200191505060405180910390f35b34156102ba57600080fd5b6102c2610dba565b604051808273ffffffffffffffffffffffffffffffffffffffff1673ffffffffffffffffffffffffffffffffffffffff16815260200191505060405180910390f35b341561030f57600080fd5b610317610ddf565b604051808260ff1660ff16815260200191505060405180910390f35b341561033e57600080fd5b610346610df2565b604051808273ffffffffffffffffffffffffffffffffffffffff1673ffffffffffffffffffffffffffffffffffffffff16815260200191505060405180910390f35b341561039357600080fd5b6104046004808035906020019082018035906020019190919290803590602001909190803573ffffffffffffffffffffffffffffffffffffffff1690602001909190803590602001908201803590602001919091929080359060200190820180359060200191909192905050610e18565b005b341561041157600080fd5b61042760048080359060200190919050506112a1565b005b341561043457600080fd5b61043c61163f565b6040518082815260200191505060405180910390f35b341561045d57600080fd5b610489600480803573ffffffffffffffffffffffffffffffffffffffff16906020019091905050611645565b6040518082815260200191505060405180910390f35b34156104aa57600080fd5b6104d6600480803573ffffffffffffffffffffffffffffffffffffffff1690602001909190505061172e565b6040518082815260200191505060405180910390f35b34156104f757600080fd5b61050d6004808035906020019091905050611817565b005b341561051a57600080fd5b61052261187c565b604051808260ff1660ff16815260200191505060405180910390f35b341561054957600080fd5b610575600480803573ffffffffffffffffffffffffffffffffffffffff1690602001909190505061188f565b005b341561058257600080fd5b6105ae600480803573ffffffffffffffffffffffffffffffffffffffff169060200190919050506119e4565b005b34156105bb57600080fd5b6105c3611b12565b604051808273ffffffffffffffffffffffffffffffffffffffff1673ffffffffffffffffffffffffffffffffffffffff16815260200191505060405180910390f35b6000809054906101000a900473ffffffffffffffffffffffffffffffffffffffff1673ffffffffffffffffffffffffffffffffffffffff163373ffffffffffffffffffffffffffffffffffffffff1614151561066057600080fd5b80600260156101000a81548160ff021916908360ff16021790555050565b600454811015151561068f57600080fd5b80600160009054906101000a900473ffffffffffffffffffffffffffffffffffffffff1673ffffffffffffffffffffffffffffffffffffffff166370a08231306000604051602001526040518263ffffffff167c0100000000000000000000000000000000000000000000000000000000028152600401808273ffffffffffffffffffffffffffffffffffffffff1673ffffffffffffffffffffffffffffffffffffffff168152602001915050602060405180830381600087803b151561075557600080fd5b6102c65a03f1151561076657600080fd5b505050604051805190501015151561077d57600080fd5b600160009054906101000a900473ffffffffffffffffffffffffffffffffffffffff1673ffffffffffffffffffffffffffffffffffffffff1663a9059cbb33836000604051602001526040518363ffffffff167c0100000000000000000000000000000000000000000000000000000000028152600401808373ffffffffffffffffffffffffffffffffffffffff1673ffffffffffffffffffffffffffffffffffffffff16815260200182815260200192505050602060405180830381600087803b151561084a57600080fd5b6102c65a03f1151561085b57600080fd5b50505060405180519050151561087057600080fd5b600260009054906101000a900473ffffffffffffffffffffffffffffffffffffffff1673ffffffffffffffffffffffffffffffffffffffff1663cf8eeb7e33836000604051602001526040518363ffffffff167c0100000000000000000000000000000000000000000000000000000000028152600401808373ffffffffffffffffffffffffffffffffffffffff1673ffffffffffffffffffffffffffffffffffffffff16815260200182815260200192505050602060405180830381600087803b151561093d57600080fd5b6102c65a03f1151561094e57600080fd5b50505060405180519050151561096357600080fd5b3373ffffffffffffffffffffffffffffffffffffffff167fa71c5ac7134113971262b89fb59ef53839f13f8e956baa7ec85c59d6cc32ec6d600260009054906101000a900473ffffffffffffffffffffffffffffffffffffffff1673ffffffffffffffffffffffffffffffffffffffff166370a08231336000604051602001526040518263ffffffff167c0100000000000000000000000000000000000000000000000000000000028152600401808273ffffffffffffffffffffffffffffffffffffffff1673ffffffffffffffffffffffffffffffffffffffff168152602001915050602060405180830381600087803b1515610a6057600080fd5b6102c65a03f11515610a7157600080fd5b505050604051805190506040518082815260200191505060405180910390a23373ffffffffffffffffffffffffffffffffffffffff167f884edad9ce6fa2440d8a54cc123490eb96d2768479d49ff9c7366125a9424364826040518082815260200191505060405180910390a250565b6000809054906101000a900473ffffffffffffffffffffffffffffffffffffffff1673ffffffffffffffffffffffffffffffffffffffff163373ffffffffffffffffffffffffffffffffffffffff16141515610b3c57600080fd5b8060048190555050565b6000809054906101000a900473ffffffffffffffffffffffffffffffffffffffff1673ffffffffffffffffffffffffffffffffffffffff163373ffffffffffffffffffffffffffffffffffffffff16141515610ba157600080fd5b80600260146101000a81548160ff021916908360ff16021790555050565b6000600260009054906101000a900473ffffffffffffffffffffffffffffffffffffffff1673ffffffffffffffffffffffffffffffffffffffff166358004a1d610c0885611b38565b846003546000604051602001526040518463ffffffff167c01000000000000000000000000000000000000000000000000000000000281526004018084600019166000191681526020018373ffffffffffffffffffffffffffffffffffffffff1673ffffffffffffffffffffffffffffffffffffffff1681526020018281526020019350505050602060405180830381600087803b1515610ca857600080fd5b6102c65a03f11515610cb957600080fd5b50505060405180519050905092915050565b60035481565b6000600260009054906101000a900473ffffffffffffffffffffffffffffffffffffffff1673ffffffffffffffffffffffffffffffffffffffff166370a08231836000604051602001526040518263ffffffff167c0100000000000000000000000000000000000000000000000000000000028152600401808273ffffffffffffffffffffffffffffffffffffffff1673ffffffffffffffffffffffffffffffffffffffff168152602001915050602060405180830381600087803b1515610d9857600080fd5b6102c65a03f11515610da957600080fd5b505050604051805190509050919050565b6000809054906101000a900473ffffffffffffffffffffffffffffffffffffffff1681565b600260159054906101000a900460ff1681565b600260009054906101000a900473ffffffffffffffffffffffffffffffffffffffff1681565b6000808714151515610e2957600080fd5b600073ffffffffffffffffffffffffffffffffffffffff168673ffffffffffffffffffffffffffffffffffffffff1614151515610e6557600080fd5b610ea089898080601f016020809104026020016040519081016040528093929190818152602001838380828437820191505050505050611b38565b9050600260009054906101000a900473ffffffffffffffffffffffffffffffffffffffff1673ffffffffffffffffffffffffffffffffffffffff1663cf8eeb7e33896000604051602001526040518363ffffffff167c0100000000000000000000000000000000000000000000000000000000028152600401808373ffffffffffffffffffffffffffffffffffffffff1673ffffffffffffffffffffffffffffffffffffffff16815260200182815260200192505050602060405180830381600087803b1515610f6f57600080fd5b6102c65a03f11515610f8057600080fd5b505050604051805190501515610f9557600080fd5b600260009054906101000a900473ffffffffffffffffffffffffffffffffffffffff1673ffffffffffffffffffffffffffffffffffffffff166379de333282338a6000604051602001526040518463ffffffff167c01000000000000000000000000000000000000000000000000000000000281526004018084600019166000191681526020018373ffffffffffffffffffffffffffffffffffffffff1673ffffffffffffffffffffffffffffffffffffffff1681526020018281526020019350505050602060405180830381600087803b151561107257600080fd5b6102c65a03f1151561108357600080fd5b50505060405180519050503373ffffffffffffffffffffffffffffffffffffffff167f6c08739efe35f044209cc5778450323c8f3d5357b1f1e6b781252579864516278a8a8a60405180806020018381526020018281038252858582818152602001925080828437820191505094505050505060405180910390a23373ffffffffffffffffffffffffffffffffffffffff167fa71c5ac7134113971262b89fb59ef53839f13f8e956baa7ec85c59d6cc32ec6d600260009054906101000a900473ffffffffffffffffffffffffffffffffffffffff1673ffffffffffffffffffffffffffffffffffffffff166370a08231336000604051602001526040518263ffffffff167c0100000000000000000000000000000000000000000000000000000000028152600401808273ffffffffffffffffffffffffffffffffffffffff1673ffffffffffffffffffffffffffffffffffffffff168152602001915050602060405180830381600087803b15156111fb57600080fd5b6102c65a03f1151561120c57600080fd5b505050604051805190506040518082815260200191505060405180910390a2611296818888888880806020026020016040519081016040528093929190818152602001838360200280828437820191505050505050878780806020026020016040519081016040528093929190818152602001838360200280828437820191505050505050611bcd565b505050505050505050565b600081141515156112b157600080fd5b600160009054906101000a900473ffffffffffffffffffffffffffffffffffffffff1673ffffffffffffffffffffffffffffffffffffffff166323b872dd3330846000604051602001526040518463ffffffff167c0100000000000000000000000000000000000000000000000000000000028152600401808473ffffffffffffffffffffffffffffffffffffffff1673ffffffffffffffffffffffffffffffffffffffff1681526020018373ffffffffffffffffffffffffffffffffffffffff1673ffffffffffffffffffffffffffffffffffffffff1681526020018281526020019350505050602060405180830381600087803b15156113b257600080fd5b6102c65a03f115156113c357600080fd5b5050506040518051905015156113d857600080fd5b600260009054906101000a900473ffffffffffffffffffffffffffffffffffffffff1673ffffffffffffffffffffffffffffffffffffffff166321e5383a33836000604051602001526040518363ffffffff167c0100000000000000000000000000000000000000000000000000000000028152600401808373ffffffffffffffffffffffffffffffffffffffff1673ffffffffffffffffffffffffffffffffffffffff16815260200182815260200192505050602060405180830381600087803b15156114a557600080fd5b6102c65a03f115156114b657600080fd5b50505060405180519050503373ffffffffffffffffffffffffffffffffffffffff167fa71c5ac7134113971262b89fb59ef53839f13f8e956baa7ec85c59d6cc32ec6d600260009054906101000a900473ffffffffffffffffffffffffffffffffffffffff1673ffffffffffffffffffffffffffffffffffffffff166370a08231336000604051602001526040518263ffffffff167c0100000000000000000000000000000000000000000000000000000000028152600401808273ffffffffffffffffffffffffffffffffffffffff1673ffffffffffffffffffffffffffffffffffffffff168152602001915050602060405180830381600087803b15156115be57600080fd5b6102c65a03f115156115cf57600080fd5b505050604051805190506040518082815260200191505060405180910390a23373ffffffffffffffffffffffffffffffffffffffff167f5466efde3f6b866c1103aefb7dcd4d0ed7d35437128ee5fcd44762b00cd514b0826040518082815260200191505060405180910390a250565b60045481565b6000600260009054906101000a900473ffffffffffffffffffffffffffffffffffffffff1673ffffffffffffffffffffffffffffffffffffffff1663d0217150836000604051602001526040518263ffffffff167c0100000000000000000000000000000000000000000000000000000000028152600401808273ffffffffffffffffffffffffffffffffffffffff1673ffffffffffffffffffffffffffffffffffffffff168152602001915050602060405180830381600087803b151561170c57600080fd5b6102c65a03f1151561171d57600080fd5b505050604051805190509050919050565b6000600260009054906101000a900473ffffffffffffffffffffffffffffffffffffffff1673ffffffffffffffffffffffffffffffffffffffff1663d04a3fb7836000604051602001526040518263ffffffff167c0100000000000000000000000000000000000000000000000000000000028152600401808273ffffffffffffffffffffffffffffffffffffffff1673ffffffffffffffffffffffffffffffffffffffff168152602001915050602060405180830381600087803b15156117f557600080fd5b6102c65a03f1151561180657600080fd5b505050604051805190509050919050565b6000809054906101000a900473ffffffffffffffffffffffffffffffffffffffff1673ffffffffffffffffffffffffffffffffffffffff163373ffffffffffffffffffffffffffffffffffffffff1614151561187257600080fd5b8060038190555050565b600260149054906101000a900460ff1681565b6000809054906101000a900473ffffffffffffffffffffffffffffffffffffffff1673ffffffffffffffffffffffffffffffffffffffff163373ffffffffffffffffffffffffffffffffffffffff161415156118ea57600080fd5b600073ffffffffffffffffffffffffffffffffffffffff168173ffffffffffffffffffffffffffffffffffffffff161415151561192657600080fd5b8073ffffffffffffffffffffffffffffffffffffffff166000809054906101000a900473ffffffffffffffffffffffffffffffffffffffff1673ffffffffffffffffffffffffffffffffffffffff167f8be0079c531659141344cd1fd0a4f28419497f9722a3daafe3b4186f6b6457e060405160405180910390a3806000806101000a81548173ffffffffffffffffffffffffffffffffffffffff021916908373ffffffffffffffffffffffffffffffffffffffff16021790555050565b6000809054906101000a900473ffffffffffffffffffffffffffffffffffffffff1673ffffffffffffffffffffffffffffffffffffffff163373ffffffffffffffffffffffffffffffffffffffff16141515611a3f57600080fd5b600260009054906101000a900473ffffffffffffffffffffffffffffffffffffffff1673ffffffffffffffffffffffffffffffffffffffff1663f2fde38b826040518263ffffffff167c0100000000000000000000000000000000000000000000000000000000028152600401808273ffffffffffffffffffffffffffffffffffffffff1673ffffffffffffffffffffffffffffffffffffffff168152602001915050600060405180830381600087803b1515611afb57600080fd5b6102c65a03f11515611b0c57600080fd5b50505050565b600160009054906101000a900473ffffffffffffffffffffffffffffffffffffffff1681565b60006002826000604051602001526040518082805190602001908083835b602083101515611b7b5780518252602082019150602081019050602083039250611b56565b6001836020036101000a03801982511681845116808217855250505050505090500191505060206040518083038160008661646e5a03f11515611bbd57600080fd5b5050604051805190509050919050565b60008060008084518651011415611bee57611be986888a611c73565b611c69565b611c266064611c18600260149054906101000a900460ff1660ff168a611ef690919063ffffffff16565b611f3190919063ffffffff16565b9250611c3b8388611f4c90919063ffffffff16565b9150611c498585848b611f65565b9050611c6886611c62838a611f4c90919063ffffffff16565b8a611c73565b5b5050505050505050565b600260009054906101000a900473ffffffffffffffffffffffffffffffffffffffff1673ffffffffffffffffffffffffffffffffffffffff166321e5383a84846000604051602001526040518363ffffffff167c0100000000000000000000000000000000000000000000000000000000028152600401808373ffffffffffffffffffffffffffffffffffffffff1673ffffffffffffffffffffffffffffffffffffffff16815260200182815260200192505050602060405180830381600087803b1515611d4057600080fd5b6102c65a03f11515611d5157600080fd5b505050604051805190501515611d6657600080fd5b8273ffffffffffffffffffffffffffffffffffffffff167f1b174056799bea141540e324bb093eb297a02b564c15e75840a30cf0d0f4837783836040518083815260200182600019166000191681526020019250505060405180910390a28273ffffffffffffffffffffffffffffffffffffffff167fa71c5ac7134113971262b89fb59ef53839f13f8e956baa7ec85c59d6cc32ec6d600260009054906101000a900473ffffffffffffffffffffffffffffffffffffffff1673ffffffffffffffffffffffffffffffffffffffff166370a08231866000604051602001526040518263ffffffff167c0100000000000000000000000000000000000000000000000000000000028152600401808273ffffffffffffffffffffffffffffffffffffffff1673ffffffffffffffffffffffffffffffffffffffff168152602001915050602060405180830381600087803b1515611ec157600080fd5b6102c65a03f11515611ed257600080fd5b505050604051805190506040518082815260200191505060405180910390a2505050565b6000806000841415611f0b5760009150611f2a565b8284029050828482811515611f1c57fe5b04141515611f2657fe5b8091505b5092915050565b6000808284811515611f3f57fe5b0490508091505092915050565b6000828211151515611f5a57fe5b818303905092915050565b6000806000611fa3611f93600260159054906101000a900460ff1660ff168951611ef690919063ffffffff16565b875161201390919063ffffffff16565b9150611fb88286611f3190919063ffffffff16565b9050611fe987611fe3600260159054906101000a900460ff1660ff1684611ef690919063ffffffff16565b86612031565b611ff4868286612031565b6120078183611ef690919063ffffffff16565b92505050949350505050565b600080828401905083811015151561202757fe5b8091505092915050565b60008060008551111561207f57600091505b845182101561207e57848281518110151561205a57fe5b906020019060200201519050612071818585611c73565b8180600101925050612043565b5b50505050505600a165627a7a723058203723e89a60bfa3bc2a39b109cfe1abfb1f1ff6a66acb957c3438394772277be30029",
  "source": "pragma solidity ^0.4.18;\n\nimport \"zeppelin-solidity/contracts/ownership/Ownable.sol\";\nimport \"zeppelin-solidity/contracts/token/ERC20/ERC20.sol\";\nimport \"zeppelin-solidity/contracts/math/SafeMath.sol\";\nimport \"./UpfiringStore.sol\";\n\ncontract Upfiring is Ownable {\n\n  using SafeMath for uint;\n\n  ERC20 public token;\n\n  UpfiringStore public store;\n\n  uint8 public torrentOwnerPercent = 50;\n\n  uint8 public seedersProfitMargin = 3;\n\n  uint public availablePaymentTime = 86400; //seconds\n\n  uint public minWithdraw = 0;\n\n  event Payment(string _torrent, uint _amount, address indexed _from);\n\n  event Refill(address indexed _to, uint _amount);\n\n  event Withdraw(address indexed _to, uint _amount);\n\n  event Pay(address indexed _to, uint _amount, bytes32 _hash);\n\n  event ChangeBalance(address indexed _to, uint _balance);\n\n  event LogEvent(string _log);\n\n  function Upfiring(UpfiringStore _store, ERC20 _token, uint8 _torrentOwnerPercent, uint8 _seedersProfitMargin, uint _minWithdraw) public {\n    require(_store != address(0));\n    require(_token != address(0));\n    require(_torrentOwnerPercent != 0);\n    require(_seedersProfitMargin != 0);\n\n    store = _store;\n    token = _token;\n    torrentOwnerPercent = _torrentOwnerPercent;\n    seedersProfitMargin = _seedersProfitMargin;\n    minWithdraw = _minWithdraw;\n  }\n\n  function() external payable {\n    revert();\n  }\n\n  function balanceOf(address _owner) public view returns (uint balance) {\n    return store.balanceOf(_owner);\n  }\n\n  function totalReceivingOf(address _owner) public view returns (uint balance) {\n    return store.totalReceivingOf(_owner);\n  }\n\n  function totalSpendingOf(address _owner) public view returns (uint balance) {\n    return store.totalSpendingOf(_owner);\n  }\n\n  function check(string _torrent, address _from) public view returns (uint amount) {\n    return store.check(torrentToHash(_torrent), _from, availablePaymentTime);\n  }\n\n  function torrentToHash(string _torrent) internal pure returns (bytes32 _hash)  {\n    return sha256(_torrent);\n  }\n\n  function refill(uint _amount) external {\n    require(_amount != uint(0));\n\n    require(token.transferFrom(msg.sender, address(this), _amount));\n    store.addBalance(msg.sender, _amount);\n\n    ChangeBalance(msg.sender, store.balanceOf(msg.sender));\n    Refill(msg.sender, _amount);\n  }\n\n  function withdraw(uint _amount) external {\n    require(_amount >= minWithdraw);\n    require(token.balanceOf(address(this)) >= _amount);\n\n    require(token.transfer(msg.sender, _amount));\n    require(store.subBalance(msg.sender, _amount));\n\n    ChangeBalance(msg.sender, store.balanceOf(msg.sender));\n    Withdraw(msg.sender, _amount);\n  }\n\n  function pay(string _torrent, uint _amount, address _owner, address[] _seeders, address[] _freeSeeders) external {\n    require(_amount != uint(0));\n    require(_owner != address(0));\n\n    bytes32 _hash = torrentToHash(_torrent);\n\n    require(store.subBalance(msg.sender, _amount));\n    store.payment(_hash, msg.sender, _amount);\n\n    Payment(_torrent, _amount, msg.sender);\n    ChangeBalance(msg.sender, store.balanceOf(msg.sender));\n\n    sharePayment(_hash, _amount, _owner, _seeders, _freeSeeders);\n  }\n\n  function sharePayment(bytes32 _hash, uint _amount, address _owner, address[] _seeders, address[] _freeSeeders) internal {\n    if ((_seeders.length + _freeSeeders.length) == 0) {\n      payTo(_owner, _amount, _hash);\n    } else {\n      uint _ownerAmount = _amount.mul(torrentOwnerPercent).div(100);\n      uint _otherAmount = _amount.sub(_ownerAmount);\n\n      uint _realOtherAmount = shareSeeders(_seeders, _freeSeeders, _otherAmount, _hash);\n      payTo(_owner, _amount.sub(_realOtherAmount), _hash);\n    }\n  }\n\n  function shareSeeders(address[] _seeders, address[] _freeSeeders, uint _amount, bytes32 _hash) internal returns (uint){\n    uint _dLength = _freeSeeders.length.add(_seeders.length.mul(seedersProfitMargin));\n    uint _dAmount = _amount.div(_dLength);\n\n    payToList(_seeders, _dAmount.mul(seedersProfitMargin), _hash);\n    payToList(_freeSeeders, _dAmount, _hash);\n\n    return _dLength.mul(_dAmount);\n  }\n\n  function payToList(address[] _seeders, uint _amount, bytes32 _hash) internal {\n    if (_seeders.length > 0) {\n      for (uint i = 0; i < _seeders.length; i++) {\n        address _seeder = _seeders[i];\n        payTo(_seeder, _amount, _hash);\n      }\n    }\n  }\n\n  function payTo(address _to, uint _amount, bytes32 _hash) internal {\n    require(store.addBalance(_to, _amount));\n\n    Pay(_to, _amount, _hash);\n    ChangeBalance(_to, store.balanceOf(_to));\n  }\n\n  function migrateStore(address _to) onlyOwner public {\n    store.transferOwnership(_to);\n  }\n\n  function setAvailablePaymentTime(uint _availablePaymentTime) onlyOwner public {\n    availablePaymentTime = _availablePaymentTime;\n  }\n\n  function setSeedersProfitMargin(uint8 _seedersProfitMargin) onlyOwner public {\n    seedersProfitMargin = _seedersProfitMargin;\n  }\n\n  function setTorrentOwnerPercent(uint8 _torrentOwnerPercent) onlyOwner public {\n    torrentOwnerPercent = _torrentOwnerPercent;\n  }\n\n  function setMinWithdraw(uint _minWithdraw) onlyOwner public {\n    minWithdraw = _minWithdraw;\n  }\n}\n",
  "sourcePath": "/Users/maximnord/Projects/upfiringWeb3/blockchain/contracts/Upfiring.sol",
  "compiler": {
    "name": "solc",
    "version": "0.4.19+commit.c4cbbb05.Emscripten.clang"
  },
  "schemaVersion": "2.0.0",
  "updatedAt": "2018-06-01T08:12:45.491Z"
}